:100000000C9462000C948A000C948A000C948A0070
:100010000C948A000C948A000C948A000C948A0038
:100020000C948A000C948A000C948A000C948A0028
:100030000C948A000C948A000C948A000C948A0018
:100040000C948A050C948A000C9458050C94320583
:100050000C948A000C948A000C948A000C948A00F8
:100060000C948A000C948A000000000024002700F1
:100070002A0000000000250028002B0000000000DE
:1000800023002600290004040404040404040202DA
:100090000202020203030303030301020408102007
:1000A0004080010204081020010204081020000012
:1000B0000008000201000003040700000000000027
:1000C0000000D40511241FBECFEFD8E0DEBFCDBFA6
:1000D00011E0A0E0B1E0E0E5F3E102C005900D928F
:1000E000A839B107D9F722E0A8E9B1E001C01D9213
:1000F000AA35B207E1F710E0C2E6D0E004C02197CC
:10010000FE010E94A009C136D107C9F70E941E0650
:100110000C94A6090C940000AF92BF92CF92DF928C
:10012000EF92FF920F931F93CF93DF936C017B01AC
:100130008B01040F151FEB015E01AE18BF08C0173D
:10014000D10759F06991D601ED91FC910190F081B0
:10015000E02DC6010995892B79F7C501DF91CF9173
:100160001F910F91FF90EF90DF90CF90BF90AF90D5
:100170000895FC01538D448D252F30E0842F90E0AD
:10018000821B930B541710F0CF9608950197089592
:10019000FC01918D828D981761F0A28DAE0FBF2F5B
:1001A000B11D5D968C91928D9F5F9F73928F90E0B1
:1001B00008958FEF9FEF0895FC01918D828D981720
:1001C00031F0828DE80FF11D858D90E008958FEF5D
:1001D0009FEF0895FC01918D228D892F90E0805C26
:1001E0009F4F821B91098F739927089585EA91E0AB
:1001F0000E94EA0021E0892B09F420E0822F089573
:1002000080E090E0892B29F00E94F60081110C9487
:1002100000000895FC01A48DA80FB92FB11DA35AA9
:10022000BF4F2C91848D90E001968F739927848F16
:10023000A689B7892C93A089B1898C918370806439
:100240008C93938D848D981306C00288F389E02DDA
:1002500080818F7D80830895EF92FF920F931F938B
:10026000CF93DF93EC0181E0888F9B8D8C8D981369
:100270001AC0E889F989808185FF15C09FB7F89475
:10028000EE89FF896083E889F989808183708064C1
:1002900080839FBF81E090E0DF91CF911F910F910C
:1002A000FF90EF900895F62E0B8D10E00F5F1F4F1B
:1002B0000F731127E02E8C8D8E110CC00FB607FC2A
:1002C000FACFE889F989808185FFF5CFCE010E94B8
:1002D0000A01F1CFEB8DEC0FFD2FF11DE35AFF4F1B
:1002E000F0829FB7F8940B8FEA89FB898081806246
:1002F000CFCFCF93DF93EC01888D8823B9F0AA8903
:10030000BB89E889F9898C9185FD03C0808186FDD0
:100310000DC00FB607FCF7CF8C9185FFF2CF80811F
:1003200085FFEDCFCE010E940A01E9CFDF91CF9189
:100330000895833081F028F4813099F08230A9F05B
:1003400008958730A9F08830C9F08430B1F48091E5
:1003500080008F7D03C0809180008F778093800024
:10036000089584B58F7784BD089584B58F7DFBCFC4
:100370008091B0008F778093B00008958091B00095
:100380008F7DF9CFCF93DF93282F30E0F901E2552D
:10039000FF4F8491F901E656FF4FD491F901EA57D6
:1003A000FF4FC491CC23A1F081110E949901EC2F41
:1003B000F0E0EE0FFF1FE458FF4FA591B491EC91D0
:1003C000ED2381E090E009F480E0DF91CF91089582
:1003D00080E090E0FACF1F93CF93DF93282F30E097
:1003E000F901E255FF4F8491F901E656FF4FD49190
:1003F000F901EA57FF4FC491CC23A9F0162F8111C0
:100400000E949901EC2FF0E0EE0FFF1FEE58FF4F16
:10041000A591B4918FB7F894EC91111108C0D095C3
:10042000DE23DC938FBFDF91CF911F910895DE2BE8
:10043000F8CFCF93DF9390E0FC01E656FF4F249175
:100440008A579F4FFC0184918823D1F090E0880F58
:10045000991FFC01E859FF4FA591B491FC01EE589A
:10046000FF4FC591D49161110EC09FB7F8948C9144
:10047000E22FE0958E238C932881E223E8839FBFAF
:10048000DF91CF9108958FB7F894EC91E22BEC9324
:100490008FBFF6CF3FB7F89480919D0190919E0158
:1004A000A0919F01B091A00126B5A89B05C02F3F48
:1004B00019F00196A11DB11D3FBFBA2FA92F982F8A
:1004C0008827BC01CD01620F711D811D911D42E085
:1004D000660F771F881F991F4A95D1F708958F924D
:1004E0009F92AF92BF92CF92DF92EF92FF920E94C3
:1004F0004A024B015C0188EEC82E83E0D82EE12C25
:10050000F12C0E944A02681979098A099B09683E00
:10051000734081059105A8F321E0C21AD108E108D2
:10052000F10888EE880E83E0981EA11CB11CC1144E
:10053000D104E104F10429F7FF90EF90DF90CF9010
:10054000BF90AF909F908F900895089590E080E0C5
:100550000895FC0101900020E9F73197AF01481B95
:10056000590BBC0182E492E00C948C008F929F9214
:10057000AF92BF920F931F93CF93DF93CDB7DEB7A8
:10058000A1970FB6F894DEBF0FBECDBF19A24230BF
:1005900008F44AE08E010F5D1F4F842E912CB12C80
:1005A000A12CA50194010E947E09E62FB901CA0180
:1005B000EA30F4F4E05DD801EE938D01232B242B77
:1005C000252B79F790E080E0109719F0CD010E947B
:1005D000A902A1960FB6F894DEBF0FBECDBFDF9182
:1005E000CF911F910F91BF90AF909F908F900895E2
:1005F000E95CE1CFCF93DF93EC0160E08E810E9454
:10060000EB0161E08E810E94EB0160E08E810E942F
:10061000EB018BE891E00197F1F7DF91CF9108951D
:10062000CF92DF92EF92FF920F931F93CF93DF93BE
:100630006C017C0187E0E80EF11CD0E0C0E0062FE1
:1006400010E0B8010C2E02C0759567950A94E2F788
:100650006170F70181917F010E94EB012196C43006
:10066000D10579F7C601DF91CF911F910F91FF90CE
:10067000EF90DF90CF900C94FA02CF92DF92EF923E
:10068000FF920F931F93CF93DF93EC01F62E642F0D
:100690008C810E94EB018D818F3F19F060E00E94F8
:1006A000EB010F2D10E08F8584FF25C06E0187E0E0
:1006B000C80ED11CF12CE12CB8010E2C02C075958E
:1006C00067950A94E2F76170F60181916F010E94CB
:1006D000EB01FFEFEF1AFF0A88E0E816F10461F77B
:1006E000CE01DF91CF911F910F91FF90EF90DF909E
:1006F000CF900C94FA02B80184E0759567958A95BD
:10070000E1F7CE010E9410036F2DCE01DF91CF9152
:100710001F910F91FF90EF90DF90CF900C941003FA
:1007200040E0682F82E492E00C943D0381E00E9457
:1007300090038BE39FE10197F1F70895CF93DF9347
:10074000823029F4909151029860909351028093E5
:1007500055021092560280E48093570280E1809304
:10076000580280E58093590261E0809146020E9420
:100770001902809147028F3F19F061E00E9419022F
:1007800061E0809148020E941902C2E4D2E09E0119
:10079000225432408091510284FD0BC084E090E0ED
:1007A00021962817390744F461E08E810E941902CE
:1007B000EECF88E090E0F4CF8BE39DE00197F1F776
:1007C00060E0809146020E94EB0160E08091480267
:1007D0000E94EB01809147028F3F19F060E00E9478
:1007E000EB018091510284FD34C063E082E492E029
:1007F0000E941003CBE4D6E4CE010197F1F763E049
:1008000082E492E00E9410032197F1F763E082E412
:1008100092E00E94100383E592E00197F1F762E015
:1008200082E492E00E9410038091510280620E9453
:10083000900384E0809352028CE00E9490030E9417
:10084000960382E08093530286E0DF91CF910C946F
:10085000900380620E9490038BE496E40197F1F785
:100860008091510280620E94900383E592E001979B
:10087000F1F78091510280620E949003D5CF909150
:100880005502691710F06FEF690FE62FF0E0EE5B8D
:10089000FD4F9489890F80680C94900341E00E9479
:1008A0003D0381E090E008954F925F926F927F92B6
:1008B0008F929F92AF92BF92CF92DF92EF92FF9270
:1008C0000F931F93CF936B017C01742EAC019B019E
:1008D0000E947909882399F08EE191E0CF911F91D0
:1008E0000F91FF90EF90DF90CF90BF90AF909F90CF
:1008F0008F907F906F905F904F900C94A90246016B
:100900005701E894B7F82FEF3FEF4FE75FE7C501D6
:10091000B4010E94790981110DC02FEF3FEF4FE71D
:100920005FE7C501B4010E94AF0718161CF482E20C
:1009300091E0D4CF2FEF3FEF4FE75FE4C701B6015F
:100940000E94070918161CF486E291E0C7CF2FEF2A
:100950003FEF4FE75FECC701B6010E94AF0787FD8D
:10096000F3CF20E030E0A901C701B6010E94AF0734
:1009700010E000E087FF0CC041E06DE282E492E00D
:100980000E943D03F7FAF094F7F8F09401E010E0CC
:10099000C0E060E070E080E09FE37C1641F020E082
:1009A00030E040E251E40E94B407CF5FF6CFA701E8
:1009B00096010E9443074B015C010E9426082B010F
:1009C0003C014AE00E94B602080F191FCC23C9F16E
:1009D000C301B2010E9455089B01AC01C501B401DD
:1009E0000E9442074B015C0141E06EE282E492E02A
:1009F0000E943D030F5F1F4FC15018F120E030E00F
:100A000040E251E4C501B4010E940C092B013C01F4
:100A10000E9426084B01B12CA12C4AE0C501B4016B
:100A20000E94B602080F191FC501B4010E945508A3
:100A30009B01AC01C301B2010E9442074B015C0162
:100A4000DBCFC801CF911F910F91FF90EF90DF9006
:100A5000CF90BF90AF909F908F907F906F905F905E
:100A60004F9008951F920F920FB60F9211242F935B
:100A70003F934F935F936F937F938F939F93AF9326
:100A8000BF93EF93FF9385EA91E00E940A01FF91E3
:100A9000EF91BF91AF919F918F917F916F915F91F6
:100AA0004F913F912F910F900FBE0F901F9018956F
:100AB0001F920F920FB60F9211242F938F939F9333
:100AC000EF93FF93E091B501F091B6018081E09141
:100AD000BB01F091BC0182FD1BC090818091BE01E1
:100AE0008F5F8F732091BF01821741F0E091BE01AB
:100AF000F0E0EB55FE4F958F8093BE01FF91EF9193
:100B00009F918F912F910F900FBE0F901F9018956E
:100B10008081F4CF1F920F920FB60F9211242F9362
:100B20003F938F939F93AF93BF938091990190913F
:100B30009A01A0919B01B0919C013091980123E012
:100B4000230F2D3758F50196A11DB11D2093980153
:100B50008093990190939A01A0939B01B0939C017B
:100B600080919D0190919E01A0919F01B091A00163
:100B70000196A11DB11D80939D0190939E01A093AC
:100B80009F01B093A001BF91AF919F918F913F9131
:100B90002F910F900FBE0F901F90189526E8230FEE
:100BA0000296A11DB11DD2CFE5EAF1E013821282B7
:100BB00088EE93E0A0E0B0E084839583A683B783BA
:100BC00084E091E09183808385EC90E09587848731
:100BD00084EC90E09787868780EC90E0918B808B07
:100BE00081EC90E0938B828B82EC90E0958B848BF0
:100BF00086EC90E0978B868B118E128E138E148E5E
:100C0000E2E4F2E01382128286E191E09183808334
:100C10008BE084838FEF85838AE0868385E08783FA
:100C200084E0808783E0818782E082871386148650
:100C300015861686178681E00C949E03789484B5F9
:100C4000826084BD84B5816084BD85B5826085BDC8
:100C500085B5816085BD80916E00816080936E0056
:100C60001092810080918100826080938100809148
:100C700081008160809381008091800081608093F9
:100C800080008091B10084608093B1008091B000B9
:100C900081608093B00080917A00846080937A00B4
:100CA00080917A00826080937A0080917A008160DE
:100CB00080937A0080917A00806880937A00109205
:100CC000C10061E087E00E94190260E080E10E94BB
:100CD0001902E091B501F091B60182E08083E091C4
:100CE000B101F091B2011082E091B301F091B40131
:100CF0008FEC80831092BD01E091B901F091BA01AF
:100D000086E08083E091B701F091B8018081806135
:100D10008083E091B701F091B80180818860808381
:100D2000E091B701F091B801808180688083E09103
:100D3000B701F091B80180818F7D808382E00E94AD
:100D40009E0361E082E00E943F048AE291E00E94FB
:100D5000A9020E946F020E94960361E081E00E9456
:100D60003F048BE391E00E94A9020E946F020E945F
:100D7000960311E4C0E0D0E060E081E00E943F040F
:100D80008BE491E00E94A9020E946F0280E10E9420
:100D9000C2019093A4018093A3018FE00E94C2013D
:100DA0009093A2018093A10110937C0080917A001E
:100DB000806480937A0080917A0086FDFCCF8091D8
:100DC000780060917900762F682F072E000C880B31
:100DD000990B0E94570842E00E9454048091A3019D
:100DE0009091A40161E0019709F046C082E00E9461
:100DF0003F0485E591E00E94A9020E946F020E94D3
:100E000096038091A1019091A201892B51F561E097
:100E100082E00E943F0442E060E070E080E791E4FD
:100E20000E9454040E946F020E94960361E087E0D2
:100E30000E94EB0161E082E00E943F0484E691E0C1
:100E40000E94A9020E946F020E949603209709F453
:100E500093CF0E94F600882309F48ECF0E940000F1
:100E60008BCF60E087E00E94EB0161E082E00E94AE
:100E70003F0487E791E0E4CF82E00E943F0486E8E8
:100E800091E0DECF5058BB27AA270E945A070C9446
:100E9000CD080E94BF0838F00E94C60820F039F43F
:100EA0009F3F19F426F40C94BC080EF4E095E7FB80
:100EB0000C94B608E92F0E94DE0858F3BA176207AF
:100EC00073078407950720F079F4A6F50C940009C0
:100ED0000EF4E0950B2EBA2FA02D0B01B901900155
:100EE0000C01CA01A0011124FF27591B99F0593F99
:100EF00050F4503E68F11A16F040A22F232F342FE1
:100F00004427585FF3CF469537952795A795F0402E
:100F10005395C9F77EF41F16BA0B620B730B840B43
:100F2000BAF09150A1F0FF0FBB1F661F771F881FFB
:100F3000C2F70EC0BA0F621F731F841F48F4879553
:100F400077956795B795F7959E3F08F0B0CF939545
:100F5000880F08F09927EE0F9795879508950E94BE
:100F6000920808F481E008950E94C8070C94CD0807
:100F70000E94C60858F00E94BF0840F029F45F3F65
:100F800029F00C94B60851110C9401090C94BC087A
:100F90000E94DE0868F39923B1F3552391F3951B62
:100FA000550BBB27AA2762177307840738F09F5F8A
:100FB0005F4F220F331F441FAA1FA9F335D00E2EF7
:100FC0003AF0E0E832D091505040E695001CCAF764
:100FD0002BD0FE2F29D0660F771F881FBB1F261727
:100FE00037074807AB07B0E809F0BB0B802DBF01FE
:100FF000FF2793585F4F3AF09E3F510578F00C94CD
:10100000B6080C9401095F3FE4F3983ED4F386954B
:1010100077956795B795F7959F5FC9F7880F911DED
:101020009695879597F90895E1E0660F771F881FD9
:10103000BB1F621773078407BA0720F0621B730B8C
:10104000840BBA0BEE1F88F7E09508950E94E6081E
:1010500088F09F5798F0B92F9927B751B0F0E1F079
:10106000660F771F881F991F1AF0BA95C9F714C029
:10107000B13091F00E940009B1E008950C9400098C
:10108000672F782F8827B85F39F0B93FCCF3869562
:1010900077956795B395D9F73EF4909580957095BF
:1010A00061957F4F8F4F9F4F0895E89409C097FB3C
:1010B0003EF490958095709561957F4F8F4F9F4F2F
:1010C0009923A9F0F92F96E9BB279395F695879573
:1010D00077956795B795F111F8CFFAF4BB0F11F436
:1010E00060FF1BC06F5F7F4F8F4F9F4F16C08823DD
:1010F00011F096E911C0772321F09EE8872F762F13
:1011000005C0662371F096E8862F70E060E02AF053
:101110009A95660F771F881FDAF7880F969587953F
:1011200097F90895990F0008550FAA0BE0E8FEEF14
:1011300016161706E807F907C0F012161306E4079B
:10114000F50798F0621B730B840B950B39F40A2694
:1011500061F0232B242B252B21F408950A2609F472
:10116000A140A6958FEF811D811D089597F99F6776
:1011700080E870E060E008959FEF80EC089500241F
:101180000A941616170618060906089500240A94EC
:1011900012161306140605060895092E0394000C72
:1011A00011F4882352F0BB0F40F4BF2B11F460FF01
:1011B00004C06F5F7F4F8F4F9F4F089557FD90582A
:1011C000440F551F59F05F3F71F04795880F97FB0B
:1011D000991F61F09F3F79F08795089512161306C5
:1011E0001406551FF2CF4695F1DF08C016161706F4
:1011F0001806991FF1CF8695710561050894089529
:10120000E894BB2766277727CB0197F908950E94BA
:10121000920808F48FEF08950E941F090C94CD08DE
:101220000E94BF0838F00E94C60820F0952311F0F4
:101230000C94B6080C94BC0811240C9401090E946B
:10124000DE0870F3959FC1F3950F50E0551F629F24
:10125000F001729FBB27F00DB11D639FAA27F00D0F
:10126000B11DAA1F649F6627B00DA11D661F829F36
:101270002227B00DA11D621F739FB00DA11D621F1B
:10128000839FA00D611D221F749F3327A00D611D38
:10129000231F849F600D211D822F762F6A2F11241A
:1012A0009F5750409AF0F1F088234AF0EE0FFF1F4D
:1012B000BB1F661F771F881F91505040A9F79E3FA4
:1012C000510580F00C94B6080C9401095F3FE4F3DB
:1012D000983ED4F3869577956795B795F795E795FA
:1012E0009F5FC1F7FE2B880F911D9695879597F903
:1012F00008950E949208880B990B0895A1E21A2E76
:10130000AA1BBB1BFD010DC0AA1FBB1FEE1FFF1FA9
:10131000A217B307E407F50720F0A21BB30BE40BF9
:10132000F50B661F771F881F991F1A9469F7609540
:101330007095809590959B01AC01BD01CF010895FA
:10134000EE0FFF1F0590F491E02D0994F894FFCF64
:10135000000000002C018C00B9007901EA00C800EF
:10136000DC00000000004E048C00A602A5026E61A5
:101370006E00696E66006F76660064696A2063615C
:101380007220736563757269747900646976657239
:1013900020696E206F72206F7574007265636F72C2
:1013A00064696E67002064697276657220696E7385
:1013B00069646500646972766572206E6F7420647A
:1013C00072756E6B65640064697276657220647212
:1013D000756E6B656400206469727665726E6F74F9
:0813E000696E73696465000089
:00000001FF
